{
  "contractName": "VotingPlus",
  "abi": [
    {
      "anonymous": false,
      "inputs": [
        {
          "indexed": true,
          "internalType": "address",
          "name": "previousOwner",
          "type": "address"
        },
        {
          "indexed": true,
          "internalType": "address",
          "name": "newOwner",
          "type": "address"
        }
      ],
      "name": "OwnershipTransferred",
      "type": "event"
    },
    {
      "anonymous": false,
      "inputs": [
        {
          "indexed": false,
          "internalType": "uint256",
          "name": "proposalId",
          "type": "uint256"
        }
      ],
      "name": "ProposalRegistered",
      "type": "event"
    },
    {
      "anonymous": false,
      "inputs": [
        {
          "indexed": false,
          "internalType": "address",
          "name": "voter",
          "type": "address"
        },
        {
          "indexed": false,
          "internalType": "uint256",
          "name": "proposalId",
          "type": "uint256"
        }
      ],
      "name": "Voted",
      "type": "event"
    },
    {
      "anonymous": false,
      "inputs": [
        {
          "indexed": false,
          "internalType": "address",
          "name": "voterAddress",
          "type": "address"
        }
      ],
      "name": "VoterRegistered",
      "type": "event"
    },
    {
      "anonymous": false,
      "inputs": [
        {
          "indexed": false,
          "internalType": "enum VotingPlus.WorkflowStatus",
          "name": "previousStatus",
          "type": "uint8"
        },
        {
          "indexed": false,
          "internalType": "enum VotingPlus.WorkflowStatus",
          "name": "newStatus",
          "type": "uint8"
        }
      ],
      "name": "WorkflowStatusChange",
      "type": "event"
    },
    {
      "inputs": [],
      "name": "owner",
      "outputs": [
        {
          "internalType": "address",
          "name": "",
          "type": "address"
        }
      ],
      "stateMutability": "view",
      "type": "function",
      "constant": true
    },
    {
      "inputs": [],
      "name": "renounceOwnership",
      "outputs": [],
      "stateMutability": "nonpayable",
      "type": "function"
    },
    {
      "inputs": [
        {
          "internalType": "address",
          "name": "newOwner",
          "type": "address"
        }
      ],
      "name": "transferOwnership",
      "outputs": [],
      "stateMutability": "nonpayable",
      "type": "function"
    },
    {
      "inputs": [],
      "name": "workflowStatus",
      "outputs": [
        {
          "internalType": "enum VotingPlus.WorkflowStatus",
          "name": "",
          "type": "uint8"
        }
      ],
      "stateMutability": "view",
      "type": "function",
      "constant": true
    },
    {
      "inputs": [
        {
          "internalType": "address",
          "name": "_addr",
          "type": "address"
        }
      ],
      "name": "getVoter",
      "outputs": [
        {
          "components": [
            {
              "internalType": "bool",
              "name": "isRegistered",
              "type": "bool"
            },
            {
              "internalType": "bool",
              "name": "hasVoted",
              "type": "bool"
            },
            {
              "internalType": "uint256",
              "name": "votedProposalId",
              "type": "uint256"
            }
          ],
          "internalType": "struct VotingPlus.Voter",
          "name": "",
          "type": "tuple"
        }
      ],
      "stateMutability": "view",
      "type": "function",
      "constant": true
    },
    {
      "inputs": [
        {
          "internalType": "uint256",
          "name": "_id",
          "type": "uint256"
        }
      ],
      "name": "getOneProposal",
      "outputs": [
        {
          "components": [
            {
              "internalType": "string",
              "name": "description",
              "type": "string"
            },
            {
              "internalType": "uint256",
              "name": "voteCount",
              "type": "uint256"
            }
          ],
          "internalType": "struct VotingPlus.Proposal",
          "name": "",
          "type": "tuple"
        }
      ],
      "stateMutability": "view",
      "type": "function",
      "constant": true
    },
    {
      "inputs": [
        {
          "internalType": "address",
          "name": "_addr",
          "type": "address"
        }
      ],
      "name": "addVoter",
      "outputs": [],
      "stateMutability": "nonpayable",
      "type": "function"
    },
    {
      "inputs": [
        {
          "internalType": "address",
          "name": "_addr",
          "type": "address"
        }
      ],
      "name": "deleteVoter",
      "outputs": [],
      "stateMutability": "nonpayable",
      "type": "function"
    },
    {
      "inputs": [
        {
          "internalType": "string",
          "name": "_desc",
          "type": "string"
        }
      ],
      "name": "addProposal",
      "outputs": [],
      "stateMutability": "nonpayable",
      "type": "function"
    },
    {
      "inputs": [
        {
          "internalType": "uint256",
          "name": "_id",
          "type": "uint256"
        }
      ],
      "name": "setVote",
      "outputs": [],
      "stateMutability": "nonpayable",
      "type": "function"
    },
    {
      "inputs": [
        {
          "internalType": "uint256",
          "name": "_num",
          "type": "uint256"
        }
      ],
      "name": "setWorkflowStatus",
      "outputs": [],
      "stateMutability": "nonpayable",
      "type": "function"
    },
    {
      "inputs": [],
      "name": "nextWorkflowStatus",
      "outputs": [],
      "stateMutability": "nonpayable",
      "type": "function"
    },
    {
      "inputs": [],
      "name": "tallyVotesDraw",
      "outputs": [
        {
          "internalType": "uint256[]",
          "name": "",
          "type": "uint256[]"
        }
      ],
      "stateMutability": "nonpayable",
      "type": "function"
    },
    {
      "inputs": [],
      "name": "tallyDraw",
      "outputs": [],
      "stateMutability": "nonpayable",
      "type": "function"
    }
  ],
  "bytecode": "0x60806040523480156200001157600080fd5b5062000032620000266200003860201b60201c565b6200004060201b60201c565b62000104565b600033905090565b60008060009054906101000a900473ffffffffffffffffffffffffffffffffffffffff169050816000806101000a81548173ffffffffffffffffffffffffffffffffffffffff021916908373ffffffffffffffffffffffffffffffffffffffff1602179055508173ffffffffffffffffffffffffffffffffffffffff168173ffffffffffffffffffffffffffffffffffffffff167f8be0079c531659141344cd1fd0a4f28419497f9722a3daafe3b4186f6b6457e060405160405180910390a35050565b6128d180620001146000396000f3fe608060405234801561001057600080fd5b50600436106100ea5760003560e01c806388e1c7391161008c578063a2788cce11610066578063a2788cce146101d7578063d4f50f9814610207578063f2fde38b14610237578063f4ab9adf14610253576100ea565b806388e1c7391461017f5780638da5cb5b1461019b578063a1edffa2146101b9576100ea565b80633beee92e116100c85780633beee92e14610131578063424f80db1461014f578063715018a61461016b5780637540628414610175576100ea565b806319a59b64146100ef578063230796ae146100f95780632fdae3c514610115575b600080fd5b6100f761026f565b005b610113600480360381019061010e9190611736565b61044f565b005b61012f600480360381019061012a91906118a9565b61074a565b005b610139610986565b60405161014691906119b0565b60405180910390f35b61016960048036038101906101649190611736565b610bff565b005b610173610d7b565b005b61017d610d8f565b005b61019960048036038101906101949190611a30565b610ec3565b005b6101a361106c565b6040516101b09190611a6c565b60405180910390f35b6101c1611095565b6040516101ce9190611afe565b60405180910390f35b6101f160048036038101906101ec9190611736565b6110a8565b6040516101fe9190611bd5565b60405180910390f35b610221600480360381019061021c9190611a30565b61120f565b60405161022e9190611c54565b60405180910390f35b610251600480360381019061024c9190611a30565b611337565b005b61026d60048036038101906102689190611a30565b6113ba565b005b610277611563565b6004600581111561028b5761028a611a87565b5b600360009054906101000a900460ff1660058111156102ad576102ac611a87565b5b146102ed576040517f08c379a00000000000000000000000000000000000000000000000000000000081526004016102e490611cf2565b60405180910390fd5b600080600090505b60048054905081101561036b57816004828154811061031757610316611d12565b5b9060005260206000209060020201600101541115610358576004818154811061034357610342611d12565b5b90600052602060002090600202016001015491505b808061036390611d70565b9150506102f5565b5060005b6004805490508110156103e557816004828154811061039157610390611d12565b5b906000526020600020906002020160010154036103d25760018190806001815401808255809150506001900390600052602060002001600090919091909150555b80806103dd90611d70565b91505061036f565b506005600360006101000a81548160ff0219169083600581111561040c5761040b611a87565b5b02179055507f0a97a4ee45751e2abf3e4fc8946939630b11b371ea8ae39ccdc3056e98f5cc3f60046005604051610444929190611db8565b60405180910390a150565b600560003373ffffffffffffffffffffffffffffffffffffffff1673ffffffffffffffffffffffffffffffffffffffff16815260200190815260200160002060000160009054906101000a900460ff166104de576040517f08c379a00000000000000000000000000000000000000000000000000000000081526004016104d590611e2d565b60405180910390fd5b600360058111156104f2576104f1611a87565b5b600360009054906101000a900460ff16600581111561051457610513611a87565b5b14610554576040517f08c379a000000000000000000000000000000000000000000000000000000000815260040161054b90611ebf565b60405180910390fd5b60011515600560003373ffffffffffffffffffffffffffffffffffffffff1673ffffffffffffffffffffffffffffffffffffffff16815260200190815260200160002060000160019054906101000a900460ff161515036105ea576040517f08c379a00000000000000000000000000000000000000000000000000000000081526004016105e190611f2b565b60405180910390fd5b6004805490508110610631576040517f08c379a000000000000000000000000000000000000000000000000000000000815260040161062890611f97565b60405180910390fd5b80600560003373ffffffffffffffffffffffffffffffffffffffff1673ffffffffffffffffffffffffffffffffffffffff168152602001908152602001600020600101819055506001600560003373ffffffffffffffffffffffffffffffffffffffff1673ffffffffffffffffffffffffffffffffffffffff16815260200190815260200160002060000160016101000a81548160ff021916908315150217905550600481815481106106e7576106e6611d12565b5b9060005260206000209060020201600101600081548092919061070990611d70565b91905055507f4d99b957a2bc29a30ebd96a7be8e68fe50a3c701db28a91436490b7d53870ca4338260405161073f929190611fc6565b60405180910390a150565b600560003373ffffffffffffffffffffffffffffffffffffffff1673ffffffffffffffffffffffffffffffffffffffff16815260200190815260200160002060000160009054906101000a900460ff166107d9576040517f08c379a00000000000000000000000000000000000000000000000000000000081526004016107d090611e2d565b60405180910390fd5b600160058111156107ed576107ec611a87565b5b600360009054906101000a900460ff16600581111561080f5761080e611a87565b5b1461084f576040517f08c379a00000000000000000000000000000000000000000000000000000000081526004016108469061203b565b60405180910390fd5b60405160200161085e90612081565b604051602081830303815290604052805190602001208160405160200161088591906120da565b60405160208183030381529060405280519060200120036108db576040517f08c379a00000000000000000000000000000000000000000000000000000000081526004016108d29061216e565b60405180910390fd5b6108e36116ad565b8181600001819052506004819080600181540180825580915050600190039060005260206000209060020201600090919091909150600082015181600001908161092d919061239a565b506020820151816001015550507f92e393e9b54e2f801d3ea4beb0c5e71a21cc34a5d34b77d0fb8a3aa1650dc18f600160048054905061096d919061246c565b60405161097a91906124a0565b60405180910390a15050565b6060610990611563565b600460058111156109a4576109a3611a87565b5b600360009054906101000a900460ff1660058111156109c6576109c5611a87565b5b14610a06576040517f08c379a00000000000000000000000000000000000000000000000000000000081526004016109fd90611cf2565b60405180910390fd5b600080600080600090505b600480549050811015610ac6578360048281548110610a3357610a32611d12565b5b90600052602060002090600202016001015403610a59578280610a5590611d70565b9350505b8360048281548110610a6e57610a6d611d12565b5b9060005260206000209060020201600101541115610ab35760048181548110610a9a57610a99611d12565b5b9060005260206000209060020201600101549350600192505b8080610abe90611d70565b915050610a11565b5060008267ffffffffffffffff811115610ae357610ae261177e565b5b604051908082528060200260200182016040528015610b115781602001602082028036833780820191505090505b50905060005b600480549050811015610b8e578460048281548110610b3957610b38611d12565b5b90600052602060002090600202016001015403610b7b57818381518110610b6357610b62611d12565b5b6020026020010151508280610b7790611d70565b9350505b8080610b8690611d70565b915050610b17565b506005600360006101000a81548160ff02191690836005811115610bb557610bb4611a87565b5b02179055507f0a97a4ee45751e2abf3e4fc8946939630b11b371ea8ae39ccdc3056e98f5cc3f60046005604051610bed929190611db8565b60405180910390a18094505050505090565b80600181610c0d919061246c565b6005811115610c1f57610c1e611a87565b5b6005811115610c3157610c30611a87565b5b600360009054906101000a900460ff166005811115610c5357610c52611a87565b5b14610c93576040517f08c379a0000000000000000000000000000000000000000000000000000000008152600401610c8a90612507565b60405180910390fd5b60058103610cd6576040517f08c379a0000000000000000000000000000000000000000000000000000000008152600401610ccd90612573565b60405180910390fd5b610cde611563565b6000600360009054906101000a900460ff169050826005811115610d0557610d04611a87565b5b600360006101000a81548160ff02191690836005811115610d2957610d28611a87565b5b02179055507f0a97a4ee45751e2abf3e4fc8946939630b11b371ea8ae39ccdc3056e98f5cc3f81600360009054906101000a900460ff16604051610d6e929190611db8565b60405180910390a1505050565b610d83611563565b610d8d60006115e1565b565b610d97611563565b6004600360009054906101000a900460ff166005811115610dbb57610dba611a87565b5b03610dfb576040517f08c379a0000000000000000000000000000000000000000000000000000000008152600401610df2906125df565b60405180910390fd5b6000600360009054906101000a900460ff1690506001600360009054906101000a900460ff166005811115610e3357610e32611a87565b5b610e3d91906125ff565b6005811115610e4f57610e4e611a87565b5b600360006101000a81548160ff02191690836005811115610e7357610e72611a87565b5b02179055507f0a97a4ee45751e2abf3e4fc8946939630b11b371ea8ae39ccdc3056e98f5cc3f81600360009054906101000a900460ff16604051610eb8929190611db8565b60405180910390a150565b610ecb611563565b60006005811115610edf57610ede611a87565b5b600360009054906101000a900460ff166005811115610f0157610f00611a87565b5b14610f41576040517f08c379a0000000000000000000000000000000000000000000000000000000008152600401610f38906126a5565b60405180910390fd5b60011515600560008373ffffffffffffffffffffffffffffffffffffffff1673ffffffffffffffffffffffffffffffffffffffff16815260200190815260200160002060000160009054906101000a900460ff16151514610fd7576040517f08c379a0000000000000000000000000000000000000000000000000000000008152600401610fce90612711565b60405180910390fd5b6000600560008373ffffffffffffffffffffffffffffffffffffffff1673ffffffffffffffffffffffffffffffffffffffff16815260200190815260200160002060000160006101000a81548160ff0219169083151502179055507fb6be2187d059cc2a55fe29e0e503b566e1e0f8c8780096e185429350acffd3dd816040516110619190611a6c565b60405180910390a150565b60008060009054906101000a900473ffffffffffffffffffffffffffffffffffffffff16905090565b600360009054906101000a900460ff1681565b6110b06116ad565b600560003373ffffffffffffffffffffffffffffffffffffffff1673ffffffffffffffffffffffffffffffffffffffff16815260200190815260200160002060000160009054906101000a900460ff1661113f576040517f08c379a000000000000000000000000000000000000000000000000000000000815260040161113690611e2d565b60405180910390fd5b6004828154811061115357611152611d12565b5b906000526020600020906002020160405180604001604052908160008201805461117c906121bd565b80601f01602080910402602001604051908101604052809291908181526020018280546111a8906121bd565b80156111f55780601f106111ca576101008083540402835291602001916111f5565b820191906000526020600020905b8154815290600101906020018083116111d857829003601f168201915b505050505081526020016001820154815250509050919050565b6112176116c7565b600560003373ffffffffffffffffffffffffffffffffffffffff1673ffffffffffffffffffffffffffffffffffffffff16815260200190815260200160002060000160009054906101000a900460ff166112a6576040517f08c379a000000000000000000000000000000000000000000000000000000000815260040161129d90611e2d565b60405180910390fd5b600560008373ffffffffffffffffffffffffffffffffffffffff1673ffffffffffffffffffffffffffffffffffffffff1681526020019081526020016000206040518060600160405290816000820160009054906101000a900460ff161515151581526020016000820160019054906101000a900460ff161515151581526020016001820154815250509050919050565b61133f611563565b600073ffffffffffffffffffffffffffffffffffffffff168173ffffffffffffffffffffffffffffffffffffffff16036113ae576040517f08c379a00000000000000000000000000000000000000000000000000000000081526004016113a5906127a3565b60405180910390fd5b6113b7816115e1565b50565b6113c2611563565b600060058111156113d6576113d5611a87565b5b600360009054906101000a900460ff1660058111156113f8576113f7611a87565b5b14611438576040517f08c379a000000000000000000000000000000000000000000000000000000000815260040161142f906126a5565b60405180910390fd5b60011515600560008373ffffffffffffffffffffffffffffffffffffffff1673ffffffffffffffffffffffffffffffffffffffff16815260200190815260200160002060000160009054906101000a900460ff161515036114ce576040517f08c379a00000000000000000000000000000000000000000000000000000000081526004016114c59061280f565b60405180910390fd5b6001600560008373ffffffffffffffffffffffffffffffffffffffff1673ffffffffffffffffffffffffffffffffffffffff16815260200190815260200160002060000160006101000a81548160ff0219169083151502179055507fb6be2187d059cc2a55fe29e0e503b566e1e0f8c8780096e185429350acffd3dd816040516115589190611a6c565b60405180910390a150565b61156b6116a5565b73ffffffffffffffffffffffffffffffffffffffff1661158961106c565b73ffffffffffffffffffffffffffffffffffffffff16146115df576040517f08c379a00000000000000000000000000000000000000000000000000000000081526004016115d69061287b565b60405180910390fd5b565b60008060009054906101000a900473ffffffffffffffffffffffffffffffffffffffff169050816000806101000a81548173ffffffffffffffffffffffffffffffffffffffff021916908373ffffffffffffffffffffffffffffffffffffffff1602179055508173ffffffffffffffffffffffffffffffffffffffff168173ffffffffffffffffffffffffffffffffffffffff167f8be0079c531659141344cd1fd0a4f28419497f9722a3daafe3b4186f6b6457e060405160405180910390a35050565b600033905090565b604051806040016040528060608152602001600081525090565b6040518060600160405280600015158152602001600015158152602001600081525090565b6000604051905090565b600080fd5b600080fd5b6000819050919050565b61171381611700565b811461171e57600080fd5b50565b6000813590506117308161170a565b92915050565b60006020828403121561174c5761174b6116f6565b5b600061175a84828501611721565b91505092915050565b600080fd5b600080fd5b6000601f19601f8301169050919050565b7f4e487b7100000000000000000000000000000000000000000000000000000000600052604160045260246000fd5b6117b68261176d565b810181811067ffffffffffffffff821117156117d5576117d461177e565b5b80604052505050565b60006117e86116ec565b90506117f482826117ad565b919050565b600067ffffffffffffffff8211156118145761181361177e565b5b61181d8261176d565b9050602081019050919050565b82818337600083830152505050565b600061184c611847846117f9565b6117de565b90508281526020810184848401111561186857611867611768565b5b61187384828561182a565b509392505050565b600082601f8301126118905761188f611763565b5b81356118a0848260208601611839565b91505092915050565b6000602082840312156118bf576118be6116f6565b5b600082013567ffffffffffffffff8111156118dd576118dc6116fb565b5b6118e98482850161187b565b91505092915050565b600081519050919050565b600082825260208201905092915050565b6000819050602082019050919050565b61192781611700565b82525050565b6000611939838361191e565b60208301905092915050565b6000602082019050919050565b600061195d826118f2565b61196781856118fd565b93506119728361190e565b8060005b838110156119a357815161198a888261192d565b975061199583611945565b925050600181019050611976565b5085935050505092915050565b600060208201905081810360008301526119ca8184611952565b905092915050565b600073ffffffffffffffffffffffffffffffffffffffff82169050919050565b60006119fd826119d2565b9050919050565b611a0d816119f2565b8114611a1857600080fd5b50565b600081359050611a2a81611a04565b92915050565b600060208284031215611a4657611a456116f6565b5b6000611a5484828501611a1b565b91505092915050565b611a66816119f2565b82525050565b6000602082019050611a816000830184611a5d565b92915050565b7f4e487b7100000000000000000000000000000000000000000000000000000000600052602160045260246000fd5b60068110611ac757611ac6611a87565b5b50565b6000819050611ad882611ab6565b919050565b6000611ae882611aca565b9050919050565b611af881611add565b82525050565b6000602082019050611b136000830184611aef565b92915050565b600081519050919050565b600082825260208201905092915050565b60005b83811015611b53578082015181840152602081019050611b38565b60008484015250505050565b6000611b6a82611b19565b611b748185611b24565b9350611b84818560208601611b35565b611b8d8161176d565b840191505092915050565b60006040830160008301518482036000860152611bb58282611b5f565b9150506020830151611bca602086018261191e565b508091505092915050565b60006020820190508181036000830152611bef8184611b98565b905092915050565b60008115159050919050565b611c0c81611bf7565b82525050565b606082016000820151611c286000850182611c03565b506020820151611c3b6020850182611c03565b506040820151611c4e604085018261191e565b50505050565b6000606082019050611c696000830184611c12565b92915050565b600082825260208201905092915050565b7f43757272656e7420737461747573206973206e6f7420766f74696e672073657360008201527f73696f6e20656e64656400000000000000000000000000000000000000000000602082015250565b6000611cdc602a83611c6f565b9150611ce782611c80565b604082019050919050565b60006020820190508181036000830152611d0b81611ccf565b9050919050565b7f4e487b7100000000000000000000000000000000000000000000000000000000600052603260045260246000fd5b7f4e487b7100000000000000000000000000000000000000000000000000000000600052601160045260246000fd5b6000611d7b82611700565b91507fffffffffffffffffffffffffffffffffffffffffffffffffffffffffffffffff8203611dad57611dac611d41565b5b600182019050919050565b6000604082019050611dcd6000830185611aef565b611dda6020830184611aef565b9392505050565b7f596f75277265206e6f74206120766f7465720000000000000000000000000000600082015250565b6000611e17601283611c6f565b9150611e2282611de1565b602082019050919050565b60006020820190508181036000830152611e4681611e0a565b9050919050565b7f566f74696e672073657373696f6e20686176656e74207374617274656420796560008201527f7400000000000000000000000000000000000000000000000000000000000000602082015250565b6000611ea9602183611c6f565b9150611eb482611e4d565b604082019050919050565b60006020820190508181036000830152611ed881611e9c565b9050919050565b7f596f75206861766520616c726561647920766f74656400000000000000000000600082015250565b6000611f15601683611c6f565b9150611f2082611edf565b602082019050919050565b60006020820190508181036000830152611f4481611f08565b9050919050565b7f50726f706f73616c206e6f7420666f756e640000000000000000000000000000600082015250565b6000611f81601283611c6f565b9150611f8c82611f4b565b602082019050919050565b60006020820190508181036000830152611fb081611f74565b9050919050565b611fc081611700565b82525050565b6000604082019050611fdb6000830185611a5d565b611fe86020830184611fb7565b9392505050565b7f50726f706f73616c7320617265206e6f7420616c6c6f77656420796574000000600082015250565b6000612025601d83611c6f565b915061203082611fef565b602082019050919050565b6000602082019050818103600083015261205481612018565b9050919050565b50565b600061206b600083611c6f565b91506120768261205b565b600082019050919050565b6000602082019050818103600083015261209a8161205e565b9050919050565b60006120ac82611b19565b6120b68185611c6f565b93506120c6818560208601611b35565b6120cf8161176d565b840191505092915050565b600060208201905081810360008301526120f481846120a1565b905092915050565b7f566f7573206e6520706f7576657a20706173206e65207269656e2070726f706f60008201527f7365720000000000000000000000000000000000000000000000000000000000602082015250565b6000612158602383611c6f565b9150612163826120fc565b604082019050919050565b600060208201905081810360008301526121878161214b565b9050919050565b7f4e487b7100000000000000000000000000000000000000000000000000000000600052602260045260246000fd5b600060028204905060018216806121d557607f821691505b6020821081036121e8576121e761218e565b5b50919050565b60008190508160005260206000209050919050565b60006020601f8301049050919050565b600082821b905092915050565b6000600883026122507fffffffffffffffffffffffffffffffffffffffffffffffffffffffffffffffff82612213565b61225a8683612213565b95508019841693508086168417925050509392505050565b6000819050919050565b600061229761229261228d84611700565b612272565b611700565b9050919050565b6000819050919050565b6122b18361227c565b6122c56122bd8261229e565b848454612220565b825550505050565b600090565b6122da6122cd565b6122e58184846122a8565b505050565b5b81811015612309576122fe6000826122d2565b6001810190506122eb565b5050565b601f82111561234e5761231f816121ee565b61232884612203565b81016020851015612337578190505b61234b61234385612203565b8301826122ea565b50505b505050565b600082821c905092915050565b600061237160001984600802612353565b1980831691505092915050565b600061238a8383612360565b9150826002028217905092915050565b6123a382611b19565b67ffffffffffffffff8111156123bc576123bb61177e565b5b6123c682546121bd565b6123d182828561230d565b600060209050601f83116001811461240457600084156123f2578287015190505b6123fc858261237e565b865550612464565b601f198416612412866121ee565b60005b8281101561243a57848901518255600182019150602085019450602081019050612415565b868310156124575784890151612453601f891682612360565b8355505b6001600288020188555050505b505050505050565b600061247782611700565b915061248283611700565b925082820390508181111561249a57612499611d41565b5b92915050565b60006020820190506124b56000830184611fb7565b92915050565b7f62616420776f726b666c6f777374617475730000000000000000000000000000600082015250565b60006124f1601283611c6f565b91506124fc826124bb565b602082019050919050565b60006020820190508181036000830152612520816124e4565b9050919050565b7f696c2066617574206c616e6365722074616c6c7920766f746573000000000000600082015250565b600061255d601a83611c6f565b915061256882612527565b602082019050919050565b6000602082019050818103600083015261258c81612550565b9050919050565b7f696c2066617574206c616e6365722074616c6c79766f74657300000000000000600082015250565b60006125c9601983611c6f565b91506125d482612593565b602082019050919050565b600060208201905081810360008301526125f8816125bc565b9050919050565b600061260a82611700565b915061261583611700565b925082820190508082111561262d5761262c611d41565b5b92915050565b7f566f7465727320726567697374726174696f6e206973206e6f74206f70656e2060008201527f7965740000000000000000000000000000000000000000000000000000000000602082015250565b600061268f602383611c6f565b915061269a82612633565b604082019050919050565b600060208201905081810360008301526126be81612682565b9050919050565b7f4e6f7420726567697374657265642e0000000000000000000000000000000000600082015250565b60006126fb600f83611c6f565b9150612706826126c5565b602082019050919050565b6000602082019050818103600083015261272a816126ee565b9050919050565b7f4f776e61626c653a206e6577206f776e657220697320746865207a65726f206160008201527f6464726573730000000000000000000000000000000000000000000000000000602082015250565b600061278d602683611c6f565b915061279882612731565b604082019050919050565b600060208201905081810360008301526127bc81612780565b9050919050565b7f416c726561647920726567697374657265640000000000000000000000000000600082015250565b60006127f9601283611c6f565b9150612804826127c3565b602082019050919050565b60006020820190508181036000830152612828816127ec565b9050919050565b7f4f776e61626c653a2063616c6c6572206973206e6f7420746865206f776e6572600082015250565b6000612865602083611c6f565b91506128708261282f565b602082019050919050565b6000602082019050818103600083015261289481612858565b905091905056fea26469706673582212201cfb9618241fff94f586fb7f81076dfe351ce03405698ad7689e4403ad93140064736f6c63430008120033",
  "immutableReferences": {},
  "source": "// SPDX-License-Identifier: MIT\n\npragma solidity 0.8.18;\nimport \"@openzeppelin/contracts/access/Ownable.sol\";\n\n\ncontract VotingPlus is Ownable {\n\n    uint[] winningProposalsID;\n    Proposal[] winningProposals;\n    \n    struct Voter {\n        bool isRegistered;\n        bool hasVoted;\n        uint votedProposalId;\n    }\n\n    struct Proposal {\n        string description;\n        uint voteCount;\n    }\n\n    enum  WorkflowStatus {\n        RegisteringVoters,\n        ProposalsRegistrationStarted,\n        ProposalsRegistrationEnded,\n        VotingSessionStarted,\n        VotingSessionEnded,\n        VotesTallied\n    }\n\n    WorkflowStatus public workflowStatus;\n    Proposal[] proposalsArray;\n    mapping (address => Voter) voters;\n\n\n    event VoterRegistered(address voterAddress); \n    event WorkflowStatusChange(WorkflowStatus previousStatus, WorkflowStatus newStatus);\n    event ProposalRegistered(uint proposalId);\n    event Voted (address voter, uint proposalId);\n\n    modifier onlyVoters() {\n        require(voters[msg.sender].isRegistered, \"You're not a voter\");\n        _;\n    }\n    \n    // on peut faire un modifier pour les tats\n\n    // ::::::::::::: GETTERS ::::::::::::: //\n\n    function getVoter(address _addr) external onlyVoters view returns (Voter memory) {\n        return voters[_addr];\n    }\n    \n    function getOneProposal(uint _id) external onlyVoters view returns (Proposal memory) {\n        return proposalsArray[_id];\n    }\n\n \n    // ::::::::::::: REGISTRATION ::::::::::::: // \n\n    function addVoter(address _addr) external onlyOwner {\n        require(workflowStatus == WorkflowStatus.RegisteringVoters, 'Voters registration is not open yet');\n        require(voters[_addr].isRegistered != true, 'Already registered');\n    \n        voters[_addr].isRegistered = true;\n        emit VoterRegistered(_addr);\n    }\n \n    \n    function deleteVoter(address _addr) external onlyOwner {\n        require(workflowStatus == WorkflowStatus.RegisteringVoters, 'Voters registration is not open yet');\n        require(voters[_addr].isRegistered == true, 'Not registered.');\n        voters[_addr].isRegistered = false;\n        emit VoterRegistered(_addr);\n    }\n\n    // ::::::::::::: PROPOSAL ::::::::::::: // \n\n    function addProposal(string memory _desc) external onlyVoters {\n        require(workflowStatus == WorkflowStatus.ProposalsRegistrationStarted, 'Proposals are not allowed yet');\n        require(keccak256(abi.encode(_desc)) != keccak256(abi.encode(\"\")), 'Vous ne pouvez pas ne rien proposer'); // facultatif\n        // voir que desc est different des autres\n\n        Proposal memory proposal;\n        proposal.description = _desc;\n        proposalsArray.push(proposal);\n        emit ProposalRegistered(proposalsArray.length-1);\n    }\n\n    // ::::::::::::: VOTE ::::::::::::: //\n\n    function setVote( uint _id) external onlyVoters {\n        require(workflowStatus == WorkflowStatus.VotingSessionStarted, 'Voting session havent started yet');\n        require(voters[msg.sender].hasVoted != true, 'You have already voted');\n        require(_id < proposalsArray.length, 'Proposal not found'); // pas oblig, et pas besoin du >0 car uint\n\n        voters[msg.sender].votedProposalId = _id;\n        voters[msg.sender].hasVoted = true;\n        proposalsArray[_id].voteCount++;\n\n        emit Voted(msg.sender, _id);\n    }\n\n    // ::::::::::::: STATE ::::::::::::: //\n\n    modifier checkWorkflowStatus(uint  _num) {\n        require (workflowStatus==WorkflowStatus(uint(_num)-1), \"bad workflowstatus\");\n        require (_num != 5, \"il faut lancer tally votes\");\n        _;\n      }\n    \n    function setWorkflowStatus(uint _num) external checkWorkflowStatus(_num) onlyOwner {\n        WorkflowStatus old = workflowStatus;\n        workflowStatus = WorkflowStatus(_num);\n        emit WorkflowStatusChange(old, workflowStatus);\n       } \n    \n    //ou \n\n    function nextWorkflowStatus() external onlyOwner{\n        require (uint(workflowStatus)!=4, \"il faut lancer tallyvotes\");\n        WorkflowStatus old = workflowStatus;\n        workflowStatus= WorkflowStatus(uint (workflowStatus) + 1);\n        emit WorkflowStatusChange(old, workflowStatus);\n    }\n        \n\n    function tallyVotesDraw() external onlyOwner returns (uint[] memory){\n       require(workflowStatus == WorkflowStatus.VotingSessionEnded, \"Current status is not voting session ended\");\n        uint highestCount;\n        uint nbWinners;\n        uint temp;\n        for (uint i = 0; i < proposalsArray.length; i++) {\n            if (proposalsArray[i].voteCount == highestCount) {\n                nbWinners++;\n            }\n            if (proposalsArray[i].voteCount > highestCount) {\n                highestCount = proposalsArray[i].voteCount;\n                nbWinners=1;\n            }\n        }\n        uint[] memory winners = new uint[](nbWinners);\n\n        for (uint h=0; h< proposalsArray.length; h++) {\n            if (proposalsArray[h].voteCount == highestCount) {\n                winners[temp];\n                temp++;\n            }\n        }\n        workflowStatus = WorkflowStatus.VotesTallied;\n        emit WorkflowStatusChange(WorkflowStatus.VotingSessionEnded, WorkflowStatus.VotesTallied);\n\n        return winners;\n    }\n\n\n// ou\n    function tallyDraw() external onlyOwner{\n       require(workflowStatus == WorkflowStatus.VotingSessionEnded, \"Current status is not voting session ended\");\n        uint highestCount;\n        \n        for (uint i = 0; i < proposalsArray.length; i++) {\n            if (proposalsArray[i].voteCount > highestCount) {\n                highestCount = proposalsArray[i].voteCount;\n            }\n        }\n        \n        for (uint j = 0; j < proposalsArray.length; j++) {\n            if (proposalsArray[j].voteCount == highestCount) {\n                winningProposalsID.push(j);\n            }\n        }\n\n        workflowStatus = WorkflowStatus.VotesTallied;\n        emit WorkflowStatusChange(WorkflowStatus.VotingSessionEnded, WorkflowStatus.VotesTallied);\n\n    }\n\n}",
  "sourcePath": "/Users/gbesset/wks/learning/web3/alyra_projet2_voting-contract_TUs/contracts/VotingPlus.sol",
  "compiler": {
    "name": "solc",
    "version": "0.8.18+commit.87f61d96.Emscripten.clang"
  },
  "schemaVersion": "3.4.11",
  "updatedAt": "2023-02-21T08:23:37.404Z",
  "networkType": "ethereum",
  "devdoc": {
    "kind": "dev",
    "methods": {
      "owner()": {
        "details": "Returns the address of the current owner."
      },
      "renounceOwnership()": {
        "details": "Leaves the contract without owner. It will not be possible to call `onlyOwner` functions anymore. Can only be called by the current owner. NOTE: Renouncing ownership will leave the contract without an owner, thereby removing any functionality that is only available to the owner."
      },
      "transferOwnership(address)": {
        "details": "Transfers ownership of the contract to a new account (`newOwner`). Can only be called by the current owner."
      }
    },
    "version": 1
  },
  "userdoc": {
    "kind": "user",
    "methods": {},
    "version": 1
  }
}